{
  "_format": "hh-sol-artifact-1",
  "contractName": "MyEpicNFT",
  "sourceName": "contracts/MyEpicNFT.sol",
  "abi": [
    {
      "inputs": [],
      "stateMutability": "nonpayable",
      "type": "constructor"
    },
    {
      "anonymous": false,
      "inputs": [
        {
          "indexed": true,
          "internalType": "address",
          "name": "owner",
          "type": "address"
        },
        {
          "indexed": true,
          "internalType": "address",
          "name": "approved",
          "type": "address"
        },
        {
          "indexed": true,
          "internalType": "uint256",
          "name": "tokenId",
          "type": "uint256"
        }
      ],
      "name": "Approval",
      "type": "event"
    },
    {
      "anonymous": false,
      "inputs": [
        {
          "indexed": true,
          "internalType": "address",
          "name": "owner",
          "type": "address"
        },
        {
          "indexed": true,
          "internalType": "address",
          "name": "operator",
          "type": "address"
        },
        {
          "indexed": false,
          "internalType": "bool",
          "name": "approved",
          "type": "bool"
        }
      ],
      "name": "ApprovalForAll",
      "type": "event"
    },
    {
      "anonymous": false,
      "inputs": [
        {
          "indexed": false,
          "internalType": "address",
          "name": "sender",
          "type": "address"
        },
        {
          "indexed": false,
          "internalType": "uint256",
          "name": "tokenId",
          "type": "uint256"
        }
      ],
      "name": "NewEpicNFTMinted",
      "type": "event"
    },
    {
      "anonymous": false,
      "inputs": [
        {
          "indexed": true,
          "internalType": "address",
          "name": "from",
          "type": "address"
        },
        {
          "indexed": true,
          "internalType": "address",
          "name": "to",
          "type": "address"
        },
        {
          "indexed": true,
          "internalType": "uint256",
          "name": "tokenId",
          "type": "uint256"
        }
      ],
      "name": "Transfer",
      "type": "event"
    },
    {
      "inputs": [],
      "name": "MAX_SUPPLY",
      "outputs": [
        {
          "internalType": "uint256",
          "name": "",
          "type": "uint256"
        }
      ],
      "stateMutability": "view",
      "type": "function"
    },
    {
      "inputs": [
        {
          "internalType": "address",
          "name": "to",
          "type": "address"
        },
        {
          "internalType": "uint256",
          "name": "tokenId",
          "type": "uint256"
        }
      ],
      "name": "approve",
      "outputs": [],
      "stateMutability": "nonpayable",
      "type": "function"
    },
    {
      "inputs": [
        {
          "internalType": "address",
          "name": "owner",
          "type": "address"
        }
      ],
      "name": "balanceOf",
      "outputs": [
        {
          "internalType": "uint256",
          "name": "",
          "type": "uint256"
        }
      ],
      "stateMutability": "view",
      "type": "function"
    },
    {
      "inputs": [
        {
          "internalType": "uint256",
          "name": "tokenId",
          "type": "uint256"
        }
      ],
      "name": "getApproved",
      "outputs": [
        {
          "internalType": "address",
          "name": "",
          "type": "address"
        }
      ],
      "stateMutability": "view",
      "type": "function"
    },
    {
      "inputs": [
        {
          "internalType": "address",
          "name": "owner",
          "type": "address"
        },
        {
          "internalType": "address",
          "name": "operator",
          "type": "address"
        }
      ],
      "name": "isApprovedForAll",
      "outputs": [
        {
          "internalType": "bool",
          "name": "",
          "type": "bool"
        }
      ],
      "stateMutability": "view",
      "type": "function"
    },
    {
      "inputs": [],
      "name": "makeAnEpicNFT",
      "outputs": [],
      "stateMutability": "nonpayable",
      "type": "function"
    },
    {
      "inputs": [],
      "name": "name",
      "outputs": [
        {
          "internalType": "string",
          "name": "",
          "type": "string"
        }
      ],
      "stateMutability": "view",
      "type": "function"
    },
    {
      "inputs": [
        {
          "internalType": "uint256",
          "name": "tokenId",
          "type": "uint256"
        }
      ],
      "name": "ownerOf",
      "outputs": [
        {
          "internalType": "address",
          "name": "",
          "type": "address"
        }
      ],
      "stateMutability": "view",
      "type": "function"
    },
    {
      "inputs": [
        {
          "internalType": "address",
          "name": "from",
          "type": "address"
        },
        {
          "internalType": "address",
          "name": "to",
          "type": "address"
        },
        {
          "internalType": "uint256",
          "name": "tokenId",
          "type": "uint256"
        }
      ],
      "name": "safeTransferFrom",
      "outputs": [],
      "stateMutability": "nonpayable",
      "type": "function"
    },
    {
      "inputs": [
        {
          "internalType": "address",
          "name": "from",
          "type": "address"
        },
        {
          "internalType": "address",
          "name": "to",
          "type": "address"
        },
        {
          "internalType": "uint256",
          "name": "tokenId",
          "type": "uint256"
        },
        {
          "internalType": "bytes",
          "name": "_data",
          "type": "bytes"
        }
      ],
      "name": "safeTransferFrom",
      "outputs": [],
      "stateMutability": "nonpayable",
      "type": "function"
    },
    {
      "inputs": [
        {
          "internalType": "address",
          "name": "operator",
          "type": "address"
        },
        {
          "internalType": "bool",
          "name": "approved",
          "type": "bool"
        }
      ],
      "name": "setApprovalForAll",
      "outputs": [],
      "stateMutability": "nonpayable",
      "type": "function"
    },
    {
      "inputs": [
        {
          "internalType": "bytes4",
          "name": "interfaceId",
          "type": "bytes4"
        }
      ],
      "name": "supportsInterface",
      "outputs": [
        {
          "internalType": "bool",
          "name": "",
          "type": "bool"
        }
      ],
      "stateMutability": "view",
      "type": "function"
    },
    {
      "inputs": [],
      "name": "symbol",
      "outputs": [
        {
          "internalType": "string",
          "name": "",
          "type": "string"
        }
      ],
      "stateMutability": "view",
      "type": "function"
    },
    {
      "inputs": [
        {
          "internalType": "uint256",
          "name": "tokenId",
          "type": "uint256"
        }
      ],
      "name": "tokenURI",
      "outputs": [
        {
          "internalType": "string",
          "name": "",
          "type": "string"
        }
      ],
      "stateMutability": "view",
      "type": "function"
    },
    {
      "inputs": [],
      "name": "totalSupply",
      "outputs": [
        {
          "internalType": "uint256",
          "name": "",
          "type": "uint256"
        }
      ],
      "stateMutability": "view",
      "type": "function"
    },
    {
      "inputs": [
        {
          "internalType": "address",
          "name": "from",
          "type": "address"
        },
        {
          "internalType": "address",
          "name": "to",
          "type": "address"
        },
        {
          "internalType": "uint256",
          "name": "tokenId",
          "type": "uint256"
        }
      ],
      "name": "transferFrom",
      "outputs": [],
      "stateMutability": "nonpayable",
      "type": "function"
    }
  ],
  "bytecode": "0x60806040526040518060c001604052806040518060400160405280600581526020017f466972737400000000000000000000000000000000000000000000000000000081525081526020016040518060400160405280600681526020017f5365636f6e64000000000000000000000000000000000000000000000000000081525081526020016040518060400160405280600581526020017f546869726400000000000000000000000000000000000000000000000000000081525081526020016040518060400160405280600681526020017f466f75727468000000000000000000000000000000000000000000000000000081525081526020016040518060400160405280600581526020017f466966746800000000000000000000000000000000000000000000000000000081525081526020016040518060400160405280600581526020017f536978746800000000000000000000000000000000000000000000000000000081525081525060089060066200018192919062000598565b5060405180608001604052806040518060400160405280600581526020017f4772616e6400000000000000000000000000000000000000000000000000000081525081526020016040518060400160405280600581526020017f536d616c6c00000000000000000000000000000000000000000000000000000081525081526020016040518060400160405280600581526020017f4c6172676500000000000000000000000000000000000000000000000000000081525081526020016040518060400160405280600681526020017f4d6964646c650000000000000000000000000000000000000000000000000000815250815250600990600462000289929190620005ff565b506040518060a001604052806040518060400160405280600381526020017f526f64000000000000000000000000000000000000000000000000000000000081525081526020016040518060400160405280600581526020017f53776f726400000000000000000000000000000000000000000000000000000081525081526020016040518060400160405280600681526020017f536869656c64000000000000000000000000000000000000000000000000000081525081526020016040518060400160405280600681526020017f48656c6d6574000000000000000000000000000000000000000000000000000081525081526020016040518060400160405280600581526020017f41726d6f72000000000000000000000000000000000000000000000000000000815250815250600a906005620003cc92919062000666565b50348015620003da57600080fd5b506040518060400160405280600981526020017f5371756172654e465400000000000000000000000000000000000000000000008152506040518060400160405280600381526020017f535152000000000000000000000000000000000000000000000000000000000081525081600090805190602001906200045f929190620006cd565b50806001908051906020019062000478929190620006cd565b505050620004c66040518060400160405280600c81526020017f436f6e73747275637465642e0000000000000000000000000000000000000000815250620004cc60201b62000eee1760201c565b62000918565b6200056c81604051602401620004e391906200082c565b6040516020818303038152906040527f41304fac000000000000000000000000000000000000000000000000000000007bffffffffffffffffffffffffffffffffffffffffffffffffffffffff19166020820180517bffffffffffffffffffffffffffffffffffffffffffffffffffffffff83818316178352505050506200056f60201b60201c565b50565b60008151905060006a636f6e736f6c652e6c6f679050602083016000808483855afa5050505050565b828054828255906000526020600020908101928215620005ec579160200282015b82811115620005eb578251829080519060200190620005da929190620006cd565b5091602001919060010190620005b9565b5b509050620005fb91906200075e565b5090565b82805482825590600052602060002090810192821562000653579160200282015b828111156200065257825182908051906020019062000641929190620006cd565b509160200191906001019062000620565b5b5090506200066291906200075e565b5090565b828054828255906000526020600020908101928215620006ba579160200282015b82811115620006b9578251829080519060200190620006a8929190620006cd565b509160200191906001019062000687565b5b509050620006c991906200075e565b5090565b828054620006db90620008a2565b90600052602060002090601f016020900481019282620006ff57600085556200074b565b82601f106200071a57805160ff19168380011785556200074b565b828001600101855582156200074b579182015b828111156200074a5782518255916020019190600101906200072d565b5b5090506200075a919062000786565b5090565b5b80821115620007825760008181620007789190620007a5565b506001016200075f565b5090565b5b80821115620007a157600081600090555060010162000787565b5090565b508054620007b390620008a2565b6000825580601f10620007c75750620007e8565b601f016020900490600052602060002090810190620007e7919062000786565b5b50565b6000620007f88262000850565b6200080481856200085b565b9350620008168185602086016200086c565b620008218162000907565b840191505092915050565b60006020820190508181036000830152620008488184620007eb565b905092915050565b600081519050919050565b600082825260208201905092915050565b60005b838110156200088c5780820151818401526020810190506200086f565b838111156200089c576000848401525b50505050565b60006002820490506001821680620008bb57607f821691505b60208210811415620008d257620008d1620008d8565b5b50919050565b7f4e487b7100000000000000000000000000000000000000000000000000000000600052602260045260246000fd5b6000601f19601f8301169050919050565b613fb580620009286000396000f3fe608060405234801561001057600080fd5b50600436106101005760003560e01c80636352211e11610097578063b88d4fde11610066578063b88d4fde146102ad578063c87b56dd146102c9578063de9d132f146102f9578063e985e9c51461030357610100565b80636352211e1461021357806370a082311461024357806395d89b4114610273578063a22cb4651461029157610100565b806318160ddd116100d357806318160ddd1461019f57806323b872dd146101bd57806332cb6b0c146101d957806342842e0e146101f757610100565b806301ffc9a71461010557806306fdde0314610135578063081812fc14610153578063095ea7b314610183575b600080fd5b61011f600480360381019061011a91906128aa565b610333565b60405161012c9190613031565b60405180910390f35b61013d610415565b60405161014a919061304c565b60405180910390f35b61016d600480360381019061016891906128fc565b6104a7565b60405161017a9190612fa1565b60405180910390f35b61019d6004803603810190610198919061286e565b61052c565b005b6101a7610644565b6040516101b491906132fc565b60405180910390f35b6101d760048036038101906101d29190612768565b610666565b005b6101e16106c6565b6040516101ee91906132fc565b60405180910390f35b610211600480360381019061020c9190612768565b6106cb565b005b61022d600480360381019061022891906128fc565b6106eb565b60405161023a9190612fa1565b60405180910390f35b61025d60048036038101906102589190612703565b61079d565b60405161026a91906132fc565b60405180910390f35b61027b610855565b604051610288919061304c565b60405180910390f35b6102ab60048036038101906102a69190612832565b6108e7565b005b6102c760048036038101906102c291906127b7565b6108fd565b005b6102e360048036038101906102de91906128fc565b61095f565b6040516102f0919061304c565b60405180910390f35b610301610ab1565b005b61031d6004803603810190610318919061272c565b610e5a565b60405161032a9190613031565b60405180910390f35b60007f80ac58cd000000000000000000000000000000000000000000000000000000007bffffffffffffffffffffffffffffffffffffffffffffffffffffffff1916827bffffffffffffffffffffffffffffffffffffffffffffffffffffffff191614806103fe57507f5b5e139f000000000000000000000000000000000000000000000000000000007bffffffffffffffffffffffffffffffffffffffffffffffffffffffff1916827bffffffffffffffffffffffffffffffffffffffffffffffffffffffff1916145b8061040e575061040d82610f87565b5b9050919050565b6060600080546104249061357b565b80601f01602080910402602001604051908101604052809291908181526020018280546104509061357b565b801561049d5780601f106104725761010080835404028352916020019161049d565b820191906000526020600020905b81548152906001019060200180831161048057829003601f168201915b5050505050905090565b60006104b282610ff1565b6104f1576040517f08c379a00000000000000000000000000000000000000000000000000000000081526004016104e89061325c565b60405180910390fd5b6004600083815260200190815260200160002060009054906101000a900473ffffffffffffffffffffffffffffffffffffffff169050919050565b6000610537826106eb565b90508073ffffffffffffffffffffffffffffffffffffffff168373ffffffffffffffffffffffffffffffffffffffff1614156105a8576040517f08c379a000000000000000000000000000000000000000000000000000000000815260040161059f9061329c565b60405180910390fd5b8073ffffffffffffffffffffffffffffffffffffffff166105c761105d565b73ffffffffffffffffffffffffffffffffffffffff1614806105f657506105f5816105f061105d565b610e5a565b5b610635576040517f08c379a000000000000000000000000000000000000000000000000000000000815260040161062c9061319c565b60405180910390fd5b61063f8383611065565b505050565b6000806001610653600761111e565b61065d91906133b0565b90508091505090565b61067761067161105d565b8261112c565b6106b6576040517f08c379a00000000000000000000000000000000000000000000000000000000081526004016106ad906132bc565b60405180910390fd5b6106c183838361120a565b505050565b603281565b6106e6838383604051806020016040528060008152506108fd565b505050565b6000806002600084815260200190815260200160002060009054906101000a900473ffffffffffffffffffffffffffffffffffffffff169050600073ffffffffffffffffffffffffffffffffffffffff168173ffffffffffffffffffffffffffffffffffffffff161415610794576040517f08c379a000000000000000000000000000000000000000000000000000000000815260040161078b906131dc565b60405180910390fd5b80915050919050565b60008073ffffffffffffffffffffffffffffffffffffffff168273ffffffffffffffffffffffffffffffffffffffff16141561080e576040517f08c379a0000000000000000000000000000000000000000000000000000000008152600401610805906131bc565b60405180910390fd5b600360008373ffffffffffffffffffffffffffffffffffffffff1673ffffffffffffffffffffffffffffffffffffffff168152602001908152602001600020549050919050565b6060600180546108649061357b565b80601f01602080910402602001604051908101604052809291908181526020018280546108909061357b565b80156108dd5780601f106108b2576101008083540402835291602001916108dd565b820191906000526020600020905b8154815290600101906020018083116108c057829003601f168201915b5050505050905090565b6108f96108f261105d565b8383611471565b5050565b61090e61090861105d565b8361112c565b61094d576040517f08c379a0000000000000000000000000000000000000000000000000000000008152600401610944906132bc565b60405180910390fd5b610959848484846115de565b50505050565b606061096a82610ff1565b6109a9576040517f08c379a00000000000000000000000000000000000000000000000000000000081526004016109a09061323c565b60405180910390fd5b60006006600084815260200190815260200160002080546109c99061357b565b80601f01602080910402602001604051908101604052809291908181526020018280546109f59061357b565b8015610a425780601f10610a1757610100808354040283529160200191610a42565b820191906000526020600020905b815481529060010190602001808311610a2557829003601f168201915b505050505090506000610a5361163a565b9050600081511415610a69578192505050610aac565b600082511115610a9e578082604051602001610a86929190612de0565b60405160208183030381529060405292505050610aac565b610aa784611651565b925050505b919050565b6000610abd600761111e565b905060328110610b02576040517f08c379a0000000000000000000000000000000000000000000000000000000008152600401610af9906132dc565b60405180910390fd5b6000610b0d826116f8565b905060608060606040518061016001604052806101308152602001613dec610130913984600081518110610b6a577f4e487b7100000000000000000000000000000000000000000000000000000000600052603260045260246000fd5b602002602001015185600181518110610bac577f4e487b7100000000000000000000000000000000000000000000000000000000600052603260045260246000fd5b602002602001015186600281518110610bee577f4e487b7100000000000000000000000000000000000000000000000000000000600052603260045260246000fd5b60200260200101516040518060400160405280600d81526020017f3c2f746578743e3c2f7376673e00000000000000000000000000000000000000815250604051602001610c40959493929190612e04565b60405160208183030381529060405291506040518060400160405280600b81526020017f5371756172654e46542023000000000000000000000000000000000000000000815250610c9086611c20565b6040518060400160405280601b81526020017f546865204f6e636861696e205371756172652054657374204e465400000000008152506040518060400160405280601a81526020017f646174613a696d6167652f7376672b786d6c3b6261736536342c000000000000815250610d0586611dcd565b604051602001610d19959493929190612ead565b6040516020818303038152906040529250610d3383611dcd565b604051602001610d439190612f7f565b6040516020818303038152906040529050610d926040518060400160405280601581526020017f0a2d2d2d2d2d2d2d2d2d2d2d2d2d2d2d2d2d2d2d2d0000000000000000000000815250610eee565b610d9b81610eee565b610dd96040518060400160405280601581526020017f2d2d2d2d2d2d2d2d2d2d2d2d2d2d2d2d2d2d2d2d0a0000000000000000000000815250610eee565b610de33386611f57565b610ded8582611f75565b610e10604051806060016040528060248152602001613f1c602491398633611fe9565b610e1a6007612088565b7febb98688741ffa4c7589bf325de30cf7becb63de567842e1ccdb6cb949fdc82c3386604051610e4b929190613008565b60405180910390a15050505050565b6000600560008473ffffffffffffffffffffffffffffffffffffffff1673ffffffffffffffffffffffffffffffffffffffff16815260200190815260200160002060008373ffffffffffffffffffffffffffffffffffffffff1673ffffffffffffffffffffffffffffffffffffffff16815260200190815260200160002060009054906101000a900460ff16905092915050565b610f8481604051602401610f02919061304c565b6040516020818303038152906040527f41304fac000000000000000000000000000000000000000000000000000000007bffffffffffffffffffffffffffffffffffffffffffffffffffffffff19166020820180517bffffffffffffffffffffffffffffffffffffffffffffffffffffffff838183161783525050505061209e565b50565b60007f01ffc9a7000000000000000000000000000000000000000000000000000000007bffffffffffffffffffffffffffffffffffffffffffffffffffffffff1916827bffffffffffffffffffffffffffffffffffffffffffffffffffffffff1916149050919050565b60008073ffffffffffffffffffffffffffffffffffffffff166002600084815260200190815260200160002060009054906101000a900473ffffffffffffffffffffffffffffffffffffffff1673ffffffffffffffffffffffffffffffffffffffff1614159050919050565b600033905090565b816004600083815260200190815260200160002060006101000a81548173ffffffffffffffffffffffffffffffffffffffff021916908373ffffffffffffffffffffffffffffffffffffffff160217905550808273ffffffffffffffffffffffffffffffffffffffff166110d8836106eb565b73ffffffffffffffffffffffffffffffffffffffff167f8c5be1e5ebec7d5bd14f71427d1e84f3dd0314c0f7b2291e5b200ac8c7c3b92560405160405180910390a45050565b600081600001549050919050565b600061113782610ff1565b611176576040517f08c379a000000000000000000000000000000000000000000000000000000000815260040161116d9061317c565b60405180910390fd5b6000611181836106eb565b90508073ffffffffffffffffffffffffffffffffffffffff168473ffffffffffffffffffffffffffffffffffffffff1614806111f057508373ffffffffffffffffffffffffffffffffffffffff166111d8846104a7565b73ffffffffffffffffffffffffffffffffffffffff16145b8061120157506112008185610e5a565b5b91505092915050565b8273ffffffffffffffffffffffffffffffffffffffff1661122a826106eb565b73ffffffffffffffffffffffffffffffffffffffff1614611280576040517f08c379a0000000000000000000000000000000000000000000000000000000008152600401611277906130fc565b60405180910390fd5b600073ffffffffffffffffffffffffffffffffffffffff168273ffffffffffffffffffffffffffffffffffffffff1614156112f0576040517f08c379a00000000000000000000000000000000000000000000000000000000081526004016112e79061313c565b60405180910390fd5b6112fb8383836120c7565b611306600082611065565b6001600360008573ffffffffffffffffffffffffffffffffffffffff1673ffffffffffffffffffffffffffffffffffffffff16815260200190815260200160002060008282546113569190613491565b925050819055506001600360008473ffffffffffffffffffffffffffffffffffffffff1673ffffffffffffffffffffffffffffffffffffffff16815260200190815260200160002060008282546113ad91906133b0565b92505081905550816002600083815260200190815260200160002060006101000a81548173ffffffffffffffffffffffffffffffffffffffff021916908373ffffffffffffffffffffffffffffffffffffffff160217905550808273ffffffffffffffffffffffffffffffffffffffff168473ffffffffffffffffffffffffffffffffffffffff167fddf252ad1be2c89b69c2b068fc378daa952ba7f163c4a11628f55a4df523b3ef60405160405180910390a461146c8383836120cc565b505050565b8173ffffffffffffffffffffffffffffffffffffffff168373ffffffffffffffffffffffffffffffffffffffff1614156114e0576040517f08c379a00000000000000000000000000000000000000000000000000000000081526004016114d79061315c565b60405180910390fd5b80600560008573ffffffffffffffffffffffffffffffffffffffff1673ffffffffffffffffffffffffffffffffffffffff16815260200190815260200160002060008473ffffffffffffffffffffffffffffffffffffffff1673ffffffffffffffffffffffffffffffffffffffff16815260200190815260200160002060006101000a81548160ff0219169083151502179055508173ffffffffffffffffffffffffffffffffffffffff168373ffffffffffffffffffffffffffffffffffffffff167f17307eab39ab6107e8899845ad3d59bd9653f200f220920489ca2b5937696c31836040516115d19190613031565b60405180910390a3505050565b6115e984848461120a565b6115f5848484846120d1565b611634576040517f08c379a000000000000000000000000000000000000000000000000000000000815260040161162b906130dc565b60405180910390fd5b50505050565b606060405180602001604052806000815250905090565b606061165c82610ff1565b61169b576040517f08c379a00000000000000000000000000000000000000000000000000000000081526004016116929061327c565b60405180910390fd5b60006116a561163a565b905060008151116116c557604051806020016040528060008152506116f0565b806116cf84611c20565b6040516020016116e0929190612de0565b6040516020818303038152906040525b915050919050565b60606000600367ffffffffffffffff81111561173d577f4e487b7100000000000000000000000000000000000000000000000000000000600052604160045260246000fd5b60405190808252806020026020018201604052801561177057816020015b606081526020019060019003908161175b5790505b50905060006117af61178185611c20565b61178a42611c20565b60405160200161179b929190612f50565b604051602081830303815290604052612268565b90506117f06040518060400160405280601a81526020017f72616e646f6d2073656564206f6620666972737420776f72643a0000000000008152508261229b565b600880549050816118019190613627565b90506118426040518060400160405280601181526020017f72616e6420666972737420776f7264203a0000000000000000000000000000008152508261229b565b6008818154811061187c577f4e487b7100000000000000000000000000000000000000000000000000000000600052603260045260246000fd5b9060005260206000200180546118919061357b565b80601f01602080910402602001604051908101604052809291908181526020018280546118bd9061357b565b801561190a5780601f106118df5761010080835404028352916020019161190a565b820191906000526020600020905b8154815290600101906020018083116118ed57829003601f168201915b505050505082600081518110611949577f4e487b7100000000000000000000000000000000000000000000000000000000600052603260045260246000fd5b602002602001018190525061198e61196085611c20565b61196942611c20565b60405160200161197a929190612e7e565b604051602081830303815290604052612268565b9050600980549050816119a19190613627565b9050600981815481106119dd577f4e487b7100000000000000000000000000000000000000000000000000000000600052603260045260246000fd5b9060005260206000200180546119f29061357b565b80601f0160208091040260200160405190810160405280929190818152602001828054611a1e9061357b565b8015611a6b5780601f10611a4057610100808354040283529160200191611a6b565b820191906000526020600020905b815481529060010190602001808311611a4e57829003601f168201915b505050505082600181518110611aaa577f4e487b7100000000000000000000000000000000000000000000000000000000600052603260045260246000fd5b6020026020010181905250611aef611ac185611c20565b611aca42611c20565b604051602001611adb929190612e4f565b604051602081830303815290604052612268565b9050600a8054905081611b029190613627565b9050600a8181548110611b3e577f4e487b7100000000000000000000000000000000000000000000000000000000600052603260045260246000fd5b906000526020600020018054611b539061357b565b80601f0160208091040260200160405190810160405280929190818152602001828054611b7f9061357b565b8015611bcc5780601f10611ba157610100808354040283529160200191611bcc565b820191906000526020600020905b815481529060010190602001808311611baf57829003601f168201915b505050505082600281518110611c0b577f4e487b7100000000000000000000000000000000000000000000000000000000600052603260045260246000fd5b60200260200101819052508192505050919050565b60606000821415611c68576040518060400160405280600181526020017f30000000000000000000000000000000000000000000000000000000000000008152509050611dc8565b600082905060005b60008214611c9a578080611c83906135de565b915050600a82611c939190613406565b9150611c70565b60008167ffffffffffffffff811115611cdc577f4e487b7100000000000000000000000000000000000000000000000000000000600052604160045260246000fd5b6040519080825280601f01601f191660200182016040528015611d0e5781602001600182028036833780820191505090505b5090505b60008514611dc157600182611d279190613491565b9150600a85611d369190613627565b6030611d4291906133b0565b60f81b818381518110611d7e577f4e487b7100000000000000000000000000000000000000000000000000000000600052603260045260246000fd5b60200101907effffffffffffffffffffffffffffffffffffffffffffffffffffffffffffff1916908160001a905350600a85611dba9190613406565b9450611d12565b8093505050505b919050565b6060600082511415611df057604051806020016040528060008152509050611f52565b6000604051806060016040528060408152602001613f406040913990506000600360028551611e1f91906133b0565b611e299190613406565b6004611e359190613437565b67ffffffffffffffff811115611e74577f4e487b7100000000000000000000000000000000000000000000000000000000600052604160045260246000fd5b6040519080825280601f01601f191660200182016040528015611ea65781602001600182028036833780820191505090505b509050600182016020820185865187015b80821015611f12576003820191508151603f8160121c168501518453600184019350603f81600c1c168501518453600184019350603f8160061c168501518453600184019350603f8116850151845360018401935050611eb7565b5050600386510660018114611f2e5760028114611f4157611f49565b603d6001830353603d6002830353611f49565b603d60018303535b50505080925050505b919050565b611f71828260405180602001604052806000815250612337565b5050565b611f7e82610ff1565b611fbd576040517f08c379a0000000000000000000000000000000000000000000000000000000008152600401611fb4906131fc565b60405180910390fd5b80600660008481526020019081526020016000209080519060200190611fe492919061258f565b505050565b6120838383836040516024016120019392919061309e565b6040516020818303038152906040527fe3849f79000000000000000000000000000000000000000000000000000000007bffffffffffffffffffffffffffffffffffffffffffffffffffffffff19166020820180517bffffffffffffffffffffffffffffffffffffffffffffffffffffffff838183161783525050505061209e565b505050565b6001816000016000828254019250508190555050565b60008151905060006a636f6e736f6c652e6c6f679050602083016000808483855afa5050505050565b505050565b505050565b60006120f28473ffffffffffffffffffffffffffffffffffffffff16612392565b1561225b578373ffffffffffffffffffffffffffffffffffffffff1663150b7a0261211b61105d565b8786866040518563ffffffff1660e01b815260040161213d9493929190612fbc565b602060405180830381600087803b15801561215757600080fd5b505af192505050801561218857506040513d601f19601f8201168201806040525081019061218591906128d3565b60015b61220b573d80600081146121b8576040519150601f19603f3d011682016040523d82523d6000602084013e6121bd565b606091505b50600081511415612203576040517f08c379a00000000000000000000000000000000000000000000000000000000081526004016121fa906130dc565b60405180910390fd5b805181602001fd5b63150b7a0260e01b7bffffffffffffffffffffffffffffffffffffffffffffffffffffffff1916817bffffffffffffffffffffffffffffffffffffffffffffffffffffffff191614915050612260565b600190505b949350505050565b60008160405160200161227b9190612dc9565b6040516020818303038152906040528051906020012060001c9050919050565b61233382826040516024016122b192919061306e565b6040516020818303038152906040527f9710a9d0000000000000000000000000000000000000000000000000000000007bffffffffffffffffffffffffffffffffffffffffffffffffffffffff19166020820180517bffffffffffffffffffffffffffffffffffffffffffffffffffffffff838183161783525050505061209e565b5050565b61234183836123b5565b61234e60008484846120d1565b61238d576040517f08c379a0000000000000000000000000000000000000000000000000000000008152600401612384906130dc565b60405180910390fd5b505050565b6000808273ffffffffffffffffffffffffffffffffffffffff163b119050919050565b600073ffffffffffffffffffffffffffffffffffffffff168273ffffffffffffffffffffffffffffffffffffffff161415612425576040517f08c379a000000000000000000000000000000000000000000000000000000000815260040161241c9061321c565b60405180910390fd5b61242e81610ff1565b1561246e576040517f08c379a00000000000000000000000000000000000000000000000000000000081526004016124659061311c565b60405180910390fd5b61247a600083836120c7565b6001600360008473ffffffffffffffffffffffffffffffffffffffff1673ffffffffffffffffffffffffffffffffffffffff16815260200190815260200160002060008282546124ca91906133b0565b92505081905550816002600083815260200190815260200160002060006101000a81548173ffffffffffffffffffffffffffffffffffffffff021916908373ffffffffffffffffffffffffffffffffffffffff160217905550808273ffffffffffffffffffffffffffffffffffffffff16600073ffffffffffffffffffffffffffffffffffffffff167fddf252ad1be2c89b69c2b068fc378daa952ba7f163c4a11628f55a4df523b3ef60405160405180910390a461258b600083836120cc565b5050565b82805461259b9061357b565b90600052602060002090601f0160209004810192826125bd5760008555612604565b82601f106125d657805160ff1916838001178555612604565b82800160010185558215612604579182015b828111156126035782518255916020019190600101906125e8565b5b5090506126119190612615565b5090565b5b8082111561262e576000816000905550600101612616565b5090565b60006126456126408461333c565b613317565b90508281526020810184848401111561265d57600080fd5b612668848285613539565b509392505050565b60008135905061267f81613d8f565b92915050565b60008135905061269481613da6565b92915050565b6000813590506126a981613dbd565b92915050565b6000815190506126be81613dbd565b92915050565b600082601f8301126126d557600080fd5b81356126e5848260208601612632565b91505092915050565b6000813590506126fd81613dd4565b92915050565b60006020828403121561271557600080fd5b600061272384828501612670565b91505092915050565b6000806040838503121561273f57600080fd5b600061274d85828601612670565b925050602061275e85828601612670565b9150509250929050565b60008060006060848603121561277d57600080fd5b600061278b86828701612670565b935050602061279c86828701612670565b92505060406127ad868287016126ee565b9150509250925092565b600080600080608085870312156127cd57600080fd5b60006127db87828801612670565b94505060206127ec87828801612670565b93505060406127fd878288016126ee565b925050606085013567ffffffffffffffff81111561281a57600080fd5b612826878288016126c4565b91505092959194509250565b6000806040838503121561284557600080fd5b600061285385828601612670565b925050602061286485828601612685565b9150509250929050565b6000806040838503121561288157600080fd5b600061288f85828601612670565b92505060206128a0858286016126ee565b9150509250929050565b6000602082840312156128bc57600080fd5b60006128ca8482850161269a565b91505092915050565b6000602082840312156128e557600080fd5b60006128f3848285016126af565b91505092915050565b60006020828403121561290e57600080fd5b600061291c848285016126ee565b91505092915050565b61292e816134c5565b82525050565b61293d816134d7565b82525050565b600061294e8261336d565b6129588185613383565b9350612968818560208601613548565b61297181613714565b840191505092915050565b600061298782613378565b6129918185613394565b93506129a1818560208601613548565b6129aa81613714565b840191505092915050565b60006129c082613378565b6129ca81856133a5565b93506129da818560208601613548565b80840191505092915050565b60006129f3603283613394565b91506129fe82613725565b604082019050919050565b6000612a166002836133a5565b9150612a2182613774565b600282019050919050565b6000612a39602583613394565b9150612a448261379d565b604082019050919050565b6000612a5c601c83613394565b9150612a67826137ec565b602082019050919050565b6000612a7f600a836133a5565b9150612a8a82613815565b600a82019050919050565b6000612aa2602483613394565b9150612aad8261383e565b604082019050919050565b6000612ac5601983613394565b9150612ad08261388d565b602082019050919050565b6000612ae8600b836133a5565b9150612af3826138b6565b600b82019050919050565b6000612b0b602c83613394565b9150612b16826138df565b604082019050919050565b6000612b2e6010836133a5565b9150612b398261392e565b601082019050919050565b6000612b51603883613394565b9150612b5c82613957565b604082019050919050565b6000612b746001836133a5565b9150612b7f826139a6565b600182019050919050565b6000612b97602a83613394565b9150612ba2826139cf565b604082019050919050565b6000612bba602983613394565b9150612bc582613a1e565b604082019050919050565b6000612bdd602e83613394565b9150612be882613a6d565b604082019050919050565b6000612c00602083613394565b9150612c0b82613abc565b602082019050919050565b6000612c236001836133a5565b9150612c2e82613ae5565b600182019050919050565b6000612c46603183613394565b9150612c5182613b0e565b604082019050919050565b6000612c69602c83613394565b9150612c7482613b5d565b604082019050919050565b6000612c8c6009836133a5565b9150612c9782613bac565b600982019050919050565b6000612caf602f83613394565b9150612cba82613bd5565b604082019050919050565b6000612cd26001836133a5565b9150612cdd82613c24565b600182019050919050565b6000612cf5602183613394565b9150612d0082613c4d565b604082019050919050565b6000612d18600a836133a5565b9150612d2382613c9c565b600a82019050919050565b6000612d3b601d836133a5565b9150612d4682613cc5565b601d82019050919050565b6000612d5e603183613394565b9150612d6982613cee565b604082019050919050565b6000612d81601383613394565b9150612d8c82613d3d565b602082019050919050565b6000612da4600a836133a5565b9150612daf82613d66565b600a82019050919050565b612dc38161352f565b82525050565b6000612dd582846129b5565b915081905092915050565b6000612dec82856129b5565b9150612df882846129b5565b91508190509392505050565b6000612e1082886129b5565b9150612e1c82876129b5565b9150612e2882866129b5565b9150612e3482856129b5565b9150612e4082846129b5565b91508190509695505050505050565b6000612e5a82612a72565b9150612e6682856129b5565b9150612e7282846129b5565b91508190509392505050565b6000612e8982612adb565b9150612e9582856129b5565b9150612ea182846129b5565b91508190509392505050565b6000612eb882612cc5565b9150612ec382612c7f565b9150612ecf82886129b5565b9150612edb82876129b5565b9150612ee682612a09565b9150612ef182612b21565b9150612efd82866129b5565b9150612f0882612a09565b9150612f1382612d97565b9150612f1f82856129b5565b9150612f2b82846129b5565b9150612f3682612b67565b9150612f4182612c16565b91508190509695505050505050565b6000612f5b82612d0b565b9150612f6782856129b5565b9150612f7382846129b5565b91508190509392505050565b6000612f8a82612d2e565b9150612f9682846129b5565b915081905092915050565b6000602082019050612fb66000830184612925565b92915050565b6000608082019050612fd16000830187612925565b612fde6020830186612925565b612feb6040830185612dba565b8181036060830152612ffd8184612943565b905095945050505050565b600060408201905061301d6000830185612925565b61302a6020830184612dba565b9392505050565b60006020820190506130466000830184612934565b92915050565b60006020820190508181036000830152613066818461297c565b905092915050565b60006040820190508181036000830152613088818561297c565b90506130976020830184612dba565b9392505050565b600060608201905081810360008301526130b8818661297c565b90506130c76020830185612dba565b6130d46040830184612925565b949350505050565b600060208201905081810360008301526130f5816129e6565b9050919050565b6000602082019050818103600083015261311581612a2c565b9050919050565b6000602082019050818103600083015261313581612a4f565b9050919050565b6000602082019050818103600083015261315581612a95565b9050919050565b6000602082019050818103600083015261317581612ab8565b9050919050565b6000602082019050818103600083015261319581612afe565b9050919050565b600060208201905081810360008301526131b581612b44565b9050919050565b600060208201905081810360008301526131d581612b8a565b9050919050565b600060208201905081810360008301526131f581612bad565b9050919050565b6000602082019050818103600083015261321581612bd0565b9050919050565b6000602082019050818103600083015261323581612bf3565b9050919050565b6000602082019050818103600083015261325581612c39565b9050919050565b6000602082019050818103600083015261327581612c5c565b9050919050565b6000602082019050818103600083015261329581612ca2565b9050919050565b600060208201905081810360008301526132b581612ce8565b9050919050565b600060208201905081810360008301526132d581612d51565b9050919050565b600060208201905081810360008301526132f581612d74565b9050919050565b60006020820190506133116000830184612dba565b92915050565b6000613321613332565b905061332d82826135ad565b919050565b6000604051905090565b600067ffffffffffffffff821115613357576133566136e5565b5b61336082613714565b9050602081019050919050565b600081519050919050565b600081519050919050565b600082825260208201905092915050565b600082825260208201905092915050565b600081905092915050565b60006133bb8261352f565b91506133c68361352f565b9250827fffffffffffffffffffffffffffffffffffffffffffffffffffffffffffffffff038211156133fb576133fa613658565b5b828201905092915050565b60006134118261352f565b915061341c8361352f565b92508261342c5761342b613687565b5b828204905092915050565b60006134428261352f565b915061344d8361352f565b9250817fffffffffffffffffffffffffffffffffffffffffffffffffffffffffffffffff048311821515161561348657613485613658565b5b828202905092915050565b600061349c8261352f565b91506134a78361352f565b9250828210156134ba576134b9613658565b5b828203905092915050565b60006134d08261350f565b9050919050565b60008115159050919050565b60007fffffffff0000000000000000000000000000000000000000000000000000000082169050919050565b600073ffffffffffffffffffffffffffffffffffffffff82169050919050565b6000819050919050565b82818337600083830152505050565b60005b8381101561356657808201518184015260208101905061354b565b83811115613575576000848401525b50505050565b6000600282049050600182168061359357607f821691505b602082108114156135a7576135a66136b6565b5b50919050565b6135b682613714565b810181811067ffffffffffffffff821117156135d5576135d46136e5565b5b80604052505050565b60006135e98261352f565b91507fffffffffffffffffffffffffffffffffffffffffffffffffffffffffffffffff82141561361c5761361b613658565b5b600182019050919050565b60006136328261352f565b915061363d8361352f565b92508261364d5761364c613687565b5b828206905092915050565b7f4e487b7100000000000000000000000000000000000000000000000000000000600052601160045260246000fd5b7f4e487b7100000000000000000000000000000000000000000000000000000000600052601260045260246000fd5b7f4e487b7100000000000000000000000000000000000000000000000000000000600052602260045260246000fd5b7f4e487b7100000000000000000000000000000000000000000000000000000000600052604160045260246000fd5b6000601f19601f8301169050919050565b7f4552433732313a207472616e7366657220746f206e6f6e20455243373231526560008201527f63656976657220696d706c656d656e7465720000000000000000000000000000602082015250565b7f222c000000000000000000000000000000000000000000000000000000000000600082015250565b7f4552433732313a207472616e736665722066726f6d20696e636f72726563742060008201527f6f776e6572000000000000000000000000000000000000000000000000000000602082015250565b7f4552433732313a20746f6b656e20616c7265616479206d696e74656400000000600082015250565b7f54484952445f574f524400000000000000000000000000000000000000000000600082015250565b7f4552433732313a207472616e7366657220746f20746865207a65726f2061646460008201527f7265737300000000000000000000000000000000000000000000000000000000602082015250565b7f4552433732313a20617070726f766520746f2063616c6c657200000000000000600082015250565b7f5345434f4e445f574f5244000000000000000000000000000000000000000000600082015250565b7f4552433732313a206f70657261746f7220717565727920666f72206e6f6e657860008201527f697374656e7420746f6b656e0000000000000000000000000000000000000000602082015250565b7f226465736372697074696f6e223a202200000000000000000000000000000000600082015250565b7f4552433732313a20617070726f76652063616c6c6572206973206e6f74206f7760008201527f6e6572206e6f7220617070726f76656420666f7220616c6c0000000000000000602082015250565b7f2200000000000000000000000000000000000000000000000000000000000000600082015250565b7f4552433732313a2062616c616e636520717565727920666f7220746865207a6560008201527f726f206164647265737300000000000000000000000000000000000000000000602082015250565b7f4552433732313a206f776e657220717565727920666f72206e6f6e657869737460008201527f656e7420746f6b656e0000000000000000000000000000000000000000000000602082015250565b7f45524337323155524953746f726167653a2055524920736574206f66206e6f6e60008201527f6578697374656e7420746f6b656e000000000000000000000000000000000000602082015250565b7f4552433732313a206d696e7420746f20746865207a65726f2061646472657373600082015250565b7f7d00000000000000000000000000000000000000000000000000000000000000600082015250565b7f45524337323155524953746f726167653a2055524920717565727920666f722060008201527f6e6f6e6578697374656e7420746f6b656e000000000000000000000000000000602082015250565b7f4552433732313a20617070726f76656420717565727920666f72206e6f6e657860008201527f697374656e7420746f6b656e0000000000000000000000000000000000000000602082015250565b7f226e616d65223a20220000000000000000000000000000000000000000000000600082015250565b7f4552433732314d657461646174613a2055524920717565727920666f72206e6f60008201527f6e6578697374656e7420746f6b656e0000000000000000000000000000000000602082015250565b7f7b00000000000000000000000000000000000000000000000000000000000000600082015250565b7f4552433732313a20617070726f76616c20746f2063757272656e74206f776e6560008201527f7200000000000000000000000000000000000000000000000000000000000000602082015250565b7f46495253545f574f524400000000000000000000000000000000000000000000600082015250565b7f646174613a6170706c69636174696f6e2f6a736f6e3b6261736536342c000000600082015250565b7f4552433732313a207472616e736665722063616c6c6572206973206e6f74206f60008201527f776e6572206e6f7220617070726f766564000000000000000000000000000000602082015250565b7f416c6c204e46547320617265206d696e74656400000000000000000000000000600082015250565b7f22696d616765223a202200000000000000000000000000000000000000000000600082015250565b613d98816134c5565b8114613da357600080fd5b50565b613daf816134d7565b8114613dba57600080fd5b50565b613dc6816134e3565b8114613dd157600080fd5b50565b613ddd8161352f565b8114613de857600080fd5b5056fe3c73766720786d6c6e733d22687474703a2f2f7777772e77332e6f72672f323030302f73766722207072657365727665417370656374526174696f3d22784d696e594d696e206d656574222076696577426f783d223020302033353020333530223e3c7374796c653e202e62617365207b66696c6c3a2077686974653b20666f6e742d66616d696c793a2073657269663b20666f6e742d73697a653a20313470783b7d3c2f7374796c653e203c726563742077696474683d223130302522206865696768743d2231303025222066696c6c3d22626c61636b22202f3e203c7465787420783d223530252220793d223530252220636c6173733d22626173652220646f6d696e616e742d626173656c696e653d226d6964646c652220746578742d616e63686f723d226d6964646c65223e416e204e465420772f204944202520686173206265656e206d696e74656420746f2025734142434445464748494a4b4c4d4e4f505152535455565758595a6162636465666768696a6b6c6d6e6f707172737475767778797a303132333435363738392b2fa26469706673582212201440c46f112f8f861d6e77d6e7201090136a275c619d4726566e9c9c93e9e20064736f6c63430008040033",
  "linkReferences": {},
  "deployedLinkReferences": {}
}